:020000040800F2
:10000000101800209D0100085F300008D71F00086D
:100010005D300008750A0008613600080000000025
:100020000000000000000000000000007D32000819
:10003000770A000800000000613000087F320008E5
:10004000B7010008B7010008B7010008B7010008B0
:10005000B7010008B7010008B7010008B7010008A0
:10006000B7010008B7010008B7010008B701000890
:10007000B7010008B7010008B7010008B701000880
:10008000B7010008B7010008B7010008B701000870
:10009000B7010008B7010008B7010008B701000860
:1000A000B7010008B7010008B7010008B701000850
:1000B000B7010008B7010008B7010008B701000840
:1000C000B7010008B7010008B7010008B701000830
:1000D000B70100080D3600082D360008B7010008EA
:1000E000B7010008B7010008B701000800F002F8E6
:1000F00000F045F80AA090E8000C82448344AAF17D
:100100000107DA4501D100F03AF8AFF2090EBAE87A
:100110000F0013F0010F18BFFB1A43F0010318473B
:1001200080760000A0760000103A24BF78C878C11D
:10013000FAD8520724BF30C830C144BF04680C60ED
:10014000704700000023002400250026103A28BF35
:1001500078C1FBD8520728BF30C148BF0B60704739
:10016000642900F0CB80752900F0C880732900F065
:100170006083002070471FB51FBD10B510BD00F093
:100180007BFB1146FFF7F7FF03F0D2FF00F099FB6E
:1001900003B4FFF7F2FF03BC03F003FB09488047F9
:1001A00009480047FEE7FEE7FEE7FEE7FEE7FEE759
:1001B000FEE7FEE7FEE7FEE704480549054A064B71
:1001C0007047000083320008ED0000081012002084
:1001D0001018002010140020101400207047000098
:1001E0000FB4044910B503AA029800F027FB10BC15
:1001F0005DF814FB400000200FB41CB5084B06AAA4
:100200007B4469460090059800F0E1FA044600201E
:10021000694600F0EFFA20461CBC5DF814FB0000B4
:10022000F10500000FB47CB50C0009AA009001D0C4
:100230002044401E084B7B4469460190089800F01A
:10024000C6FA05461CB10020694600F0D3FA2846DC
:100250007CBC5DF814FB0000C505000070B50446C9
:1002600085690068C10601D5302600E02026C00758
:1002700007D070BDD4E9012130469047206A401C68
:1002800020626D1EF6D570BD70B504468569007894
:10029000C00707D170BDD4E9012120209047206A12
:1002A000401C20626D1EF6D570BD70B50C4605462B
:1002B000012A05D02878800600D5EA69002302E0EB
:1002C000012305E05B1C934202D2E05C0028F9D1D7
:1002D000A869E618C01AA861286A18442862284646
:1002E000FFF7BCFF04E0D5E9012114F8010B9047AA
:1002F000B442F8D32846FFF7C7FF70BD2DE9F0419F
:100300000646002410687529314616A510D0AFF3B3
:100310000080002802DA404213A507E031688A070E
:1003200001D512A502E0490704D511A5012401E079
:10033000AFF3008000210A2206F1240709E0B0FB98
:10034000F2FCB0FBF2F302FB1C003030785418468C
:10035000491C0028F3D123462A463046BDE8F04127
:1003600000F0D6B9000000002D0000002B000000B6
:10037000200000002DE9F05F894604464FF0000A96
:10038000DFF874B1FB44C0F820A02046E16888473C
:10039000002874D0252806D0D4E901219047206A8E
:1003A000401C2062F1E700265F462046E16888474E
:1003B0002028054607DB312D05D2781910F8200CCE
:1003C00008B10643F1E7B00701D526F00406C4F8EA
:1003D0001CA00027C4F818A02A2D09D0284603F035
:1003E000D9F938B304EB8708303DC8F8185019E044
:1003F00059F8041B204604EB87029161E1688847A5
:10040000012F054618D1E069002820DA26F02006E1
:100410001DE0D8F8180000EB800005EB40003038F4
:10042000C8F818002046E1688847054603F0B2F98D
:100430000028EED1012F0AD02E2D08D12046E168E8
:1004400088477F1C0546022F46F02006C4DBA069C2
:10045000002803DA404246F00106A061F00701D00F
:1004600026F010066C2D0BD0682D09D04C2D39D0FC
:100470006A2D35D0742D35D07A2D33D016E038E082
:10048000E1682F4620468847B842054609D16C2FBF
:1004900026D04FF48060E168064320468847054631
:1004A00004E06C2F1AD04FF4807006430DB3A5F111
:1004B0004100192802D8203546F400664A462946EC
:1004C000204626604E46FFF74BFE80B101280BD038
:1004D000F61D26F0070000F1080956E74020E4E782
:1004E0008020D8E70020D6E706F104094DE728462A
:1004F00052E7206ABDE8F09FDA710000401ECAB2E0
:1005000010F8011F8A4202D00029F9D1002070475B
:1005100030B505460B462A4613F8014B12F8010B7D
:1005200008B1A042F8D01CB1002802D06D1CF1E740
:10053000284630BD10B5431C02E010F8011B71B114
:100540008107FAD14FF0013202C88C1A8C4314EAA9
:10055000C211F9D0C01A0A0603D0C01E10BDC01ABD
:1005600010BD0A0401D0801E10BD0902FCD0401E3F
:1005700010BD032A40F2308010F0030C00F015800B
:1005800011F8013BBCF1020F624498BF11F801CB96
:1005900000F8013B38BF11F8013BA2F1040298BFFB
:1005A00000F801CB38BF00F8013B11F0030300F065
:1005B0002580083AC0F0088051F8043B083A51F809
:1005C00004CBA0E80810F5E7121D5CBF51F8043B0E
:1005D00040F8043BAFF30080D20724BF11F8013B81
:1005E00011F801CB48BF11F8012B24BF00F8013BE3
:1005F00000F801CB48BF00F8012B704710B5203A36
:10060000C0F00B80B1E81850203AA0E81850B1E8CB
:100610001850A0E81850BFF4F5AF5FEA027C24BF81
:10062000B1E81850A0E8185044BF18C918C0BDE878
:1006300010405FEA827C24BF51F8043B40F8043B41
:1006400008BF7047D20728BF31F8023B48BF11F8F6
:10065000012B28BF20F8023B48BF00F8012B704750
:100660004FF000020429C0F0128010F0030C00F0DB
:100670001B80CCF1040CBCF1020F18BF00F8012B59
:10068000A8BF20F8022BA1EB0C0100F00DB85FEA27
:10069000C17C24BF00F8012B00F8012B48BF00F8F3
:1006A000012B70474FF0000200B513469446964662
:1006B000203922BFA0E80C50A0E80C50B1F1200175
:1006C000BFF4F7AF090728BFA0E80C5048BF0CC023
:1006D0005DF804EB890028BF40F8042B08BF704781
:1006E00048BF20F8022B11F0804F18BF00F8012BF3
:1006F0007047704770477047704710B500F0B0F80A
:10070000006810BD10B5044600F0AAF8046010BDE2
:100710002DE9F0470D4699469246044600F124081B
:100720000168880604D5E06921F01001216000E02D
:100730000120A84201DD471B00E00027A1697A19CA
:1007400002EB0900081AA0612078C00602D42046F6
:10075000FFF784FD002608E0D4E901211AF806001D
:100760009047206A401C761C20624E45F4DB2078BE
:10077000C0060AD52046FFF771FD06E0D4E9012145
:1007800030209047206A401C2062381EA7F10107E4
:10079000F4DC07E0D4E9012118F805009047206A4D
:1007A000401C2062281EA5F10105F3DC2046FFF75E
:1007B0006BFD2078000602D50220BDE8F0870120FD
:1007C000FBE7000001694A1C02610878704700B528
:1007D0008FB0CDE901310021059105497944CDE97A
:1007E000031011466846FFF7C5FD0FB000BD0000BD
:1007F000E5FFFFFF0A6802F8010B0A607047D1E9C4
:1008000000239A4202D2531C0B601070704710B53F
:10081000436913B1AFF3008001E0FFF746FD01200B
:1008200010BD127800F124010A7000224A700122E2
:10083000EDE711684FF0FF32E9E70000074B70B5B4
:100840000D467B44FFF7C3FF0446284600F00CF832
:1008500010B14FF0FF3070BD204670BD673700000B
:1008600000487047AC110020007B00F0800070470A
:1008700000487047AC1100207546FFF7F9FFAE46FF
:1008800005006946534620F00700854618B020B59C
:10089000FFF792FCBDE820404FF000064FF0000744
:1008A0004FF000084FF0000B21F00701AC46ACE818
:1008B000C009ACE8C009ACE8C009ACE8C0098D4685
:1008C000704710B50446AFF300802046BDE81040E5
:1008D000FFF75EBC70B5044620688168C943C9074C
:1008E00016D1816821F00101816000F065FD0546A7
:1008F00009E000F061FD401B022804D920688068EF
:10090000C043C00706D020688068C043C007F0D04D
:10091000002070BDA06A40F01000A062E06A40F0C4
:100920000100E062012070BDF8B504460026009683
:1009300020688168C943C9072FD0816841F001014F
:100940008160174817490068B0FBF1F0009002E0A1
:100950000098401E009000980028F9D100F02CFD6E
:10096000054615E000F028FD401B022810D920683C
:100970008068C043C0070BD0A06A40F01000A0629E
:10098000E06A40F00100E06284F824600120F8BDD4
:1009900020688068C043C007E4D10020F8BD000093
:1009A0000000002040420F000EB500900120019091
:1009B000052002906946084800F060F9064800F0FA
:1009C00019FB4FF0FF31044800F06EFA024800F0C6
:1009D000D9F980B20EBD0000DC0A002008B50E482F
:1009E000816941F400718161806900F400700090B8
:1009F0000B480A49016000214160816001730122B6
:100A0000026101754FF46021C16100F0BFF9BDE8DA
:100A10000840034800F0B8B800100240002401402C
:100A2000DC0A002070B586B000240294039404947C
:100A300005940E48816941F010018161806900F0E0
:100A4000100001900A4E4FF400450022294630461E
:100A500000F0ABFC02950121039104940221059161
:100A600002A9304600F0A2FB06B070BD00100240A3
:100A700000100140FEE7704770B586B00024029474
:100A80000394049405940E48816941F0100181613A
:100A9000806900F0100001900A4E4FF4804500225A
:100AA0002946304600F081FC02950121039104940F
:100AB0000221059102A9304600F078FB06B070BD16
:100AC00000100240001001402DE9F041234D244F59
:100AD0004FF48046287800283ED1DFF8888098F8C7
:100AE000030005F0DDFC204905F022FD044698F8DE
:100AF000020005F0D5FC214605F07CFB0446287970
:100B000005F0CEFC214605F0DFFC05D2012231467E
:100B1000384600F04AFC04E000223146384600F036
:100B200044FCA8896A794FF40041904204D2012222
:100B3000384600F03AFC03E00022384600F035FC6D
:100B4000E889A979884203D2BDE8F04103F0C8BA28
:100B5000BDE8F04103F0BCBABDE8F081140000200C
:100B6000001001400C000020CDCCCC3D10B5144647
:100B70004A1C93B2421C92B202F06CF92046BDE8C6
:100B8000104001F091BF0000F8B504460026009621
:100B900094F8240001280CD0012084F82400204679
:100BA000FFF798FE2046FFF7BFFE0746380002D049
:100BB0005DE00220F8BDA06A20F4885040F00200F9
:100BC000A062022000F07AFC2B490968B1FBF0F02A
:100BD0004000009002E00098401E0090009800281D
:100BE000F9D12068816841F00801816000F0E4FBE0
:100BF000054612E000F0E0FB401B0A280DD92068F2
:100C00008068000709D5A06A20F0020040F01000BB
:100C1000A06284F824600120F8BD20688068000785
:100C2000E8D42068816841F00401816000F0C4FBD1
:100C3000054612E000F0C0FB401B0A280DD92068D1
:100C40008068400709D5A06A20F0020040F010003B
:100C5000A06284F824600120F8BD20688068400705
:100C6000E8D4A06A20F0020040F00100A06284F8FD
:100C700024603846F8BD000000000020F8B50023CD
:100C80000025009590F82420012A12D0012280F836
:100C900024204A681F26072A0DD20468676B521E5B
:100CA00002EB82029640B7430E6896403743676373
:100CB0001AE00220F8BD0D2A0BD20468276BD21F60
:100CC00002EB82029640B7430E6896403743276393
:100CD0000AE00468E76A0D3A02EB82029640B743E5
:100CE0000E6896403743E7620A6807260A2A0BD344
:100CF0000468E7680A3A02EB42029640B7438E68FE
:100D000096403743E76009E00468276902EB420236
:100D10009640B7438E689640374327610A68102A89
:100D200001D0112A23D1144C0268A2421AD194682E
:100D300024021CD4946844F40004946009681029C7
:100D400015D10E490E4A0968B1FBF2F101EB8101A0
:100D50004900009102E00099491E00910099002984
:100D6000F9D104E0816A41F020018162012380F819
:100D700024501846F8BD0000002401400000002067
:100D800040420F000068C06C704700002DE9F04140
:100D9000044600270025002C03D0A06A002618B1C5
:100DA00008E00120BDE8F081E66284F82460204676
:100DB00000F078F82046FFF78DFDA16AC90600D43F
:100DC00028B1A06A40F01000A0620120EAE7A16A01
:100DD00021F4885141F00201A1626268E169237B3C
:100DE0000A4347EA43010A43A1684FF48077B942B6
:100DF00008D0012906D0002194F814C0BCF1010FDD
:100E000002D00AE03946F7E7F3B1A36A43F02003C2
:100E1000A362E36A43F00103E3622368D3F804C0EA
:100E20002CF4694C4CEA010CC3F804C021688B68AF
:100E3000DFF868C003EA0C0313438B60A168B94272
:100E400009D0012907D009E0A3695B1E41EA4331BB
:100E500041F40061E1E7218A491E0D052168CB6A52
:100E600023F470032B43CB62216889680C4B194033
:100E7000914207D1E662A16A21F0020141F001012D
:100E8000A1628FE7A06A20F0020040F01000A0628B
:100E9000E06A40F00100E062012083E7FDF7E1FF36
:100EA000FE0E1FFF704700002DE9F84304460D4673
:100EB0004FF00008CDF8008000F07EFA064620686A
:100EC0008168C90508D5A06A40F02000A06284F8B6
:100ED00024800120BDE8F8834168C90503D4C06AB5
:100EE00010F4700F31D0022000F0E8FA3E49096892
:100EF000B1FBF0F7206801693C4A11424FEA6202F7
:100F00004FEAA21326D1C1684FEA621C11EA0C0F06
:100F100020D1016911422CD1C068184229D1142076
:100F20002AE0681C11D025B100F046FA801BA842C7
:100F30000BD920680068800707D4A06A40F004003D
:100F4000A06284F824800320C4E72068006880073A
:100F5000E7D52CE00169114202D1C168194206D0DF
:100F6000026923490A4206D1C068084203D15420CD
:100F700002E0292000E0FC20474315E0681C10D067
:100F800025B100F019FA801BA8420AD90098B8428E
:100F900007D2A06A40F00400A06284F824800320F5
:100FA00098E70098401C00900098B842E6D321686A
:100FB0006FF012000860A06A40F40070A062206820
:100FC0008068C0F3424007280CD1207B50B9A06A4A
:100FD00020F48070A062A06AC00403D4A06A40F02C
:100FE0000100A062002075E700000020244992243F
:100FF0004992240070B5044694F8240001280CD0CE
:10100000012084F824002046FFF78EFC01460022D0
:1010100029B184F82420084670BD022070BDA06A62
:1010200040F20123984340F48070A062234D206871
:10103000234BA84218D11E6816F4702F14D0A66A4C
:1010400046F48016A6621E68760505D5A66A26F4C3
:10105000005646F48056A662A66AF60412D5E66AE1
:1010600026F00606E6620EE0A66A26F48016A66260
:1010700046687605F0D5A66A26F4005646F48056F2
:10108000A662E9E7E26284F824206FF002020260BF
:1010900020688268C2F34242072A05D1A84208D1DB
:1010A0001A6812F4702F04D0826842F480128260B1
:1010B000B1E7826842F4A0028260ACE700280140F8
:1010C0000424014010B590F821100022022905D017
:1010D0000421816380F82020012010BD01680B6885
:1010E00023F00E030B6001680B6823F001030B6013
:1010F00090F84030C46B012101FA03F3636080F87B
:10110000211080F82020104610BD000010B50024EA
:1011100090F82110022903D00421816301243DE0CD
:1011200001680A6822F00E020A6001680A6822F06B
:1011300001020A601A4A0168914201D1012121E0AD
:10114000174A1432914201D110211BE0144A28326F
:10115000914201D1891515E0114A3C32914201D1E9
:1011600089140FE00E4A5032914202D14FF480317F
:1011700008E00B4A6432914202D14FF4801101E041
:101180004FF08071064A083A5160012180F8211021
:10119000002180F82010416B01B18847204610BD26
:1011A0000800024080B202F00DBB00002DE9F84FAC
:1011B00000240023DFF8C4914FF00F08A9F1040BBD
:1011C00009F1040AABF1040ED1E00127A7403A402F
:1011D000BA4275D1DFF8A8C14D68A5EB0C0665458C
:1011E0002BD00DDC032D34D005DC35B3012D19D007
:1011F000022D2FD11BE0112D16D0122D2AD119E06E
:10120000B6F5881F19D006DCB6F5803F15D0B6F5C7
:10121000801F1FD111E0B6F5001F0ED0B6F5041FD8
:1012200018D10AE0CB6815E0CB681B1D12E0CB6833
:1012300008330FE0CB680C330CE08B6823B1012B33
:1012400004D00823476105E0042303E00823076175
:1012500000E00023FF2A01D8054601E000F1040563
:1012600002D84FEA840603E0A4F108064FEA860696
:101270002F6808FA06FC27EA0C0703FA06F647EA85
:1012800006072F604D68ED0070D53E4DAE6946F003
:101290000106AE61AD6905F0010500953A4D24F0F7
:1012A00003067719BE68A5072D0F08FA05FC26EA84
:1012B0000C06DFF8D8C0604503D14FF0000C17E0F2
:1012C00054E0DFF8CCC0604502D14FF0010C0FE0D4
:1012D000DFF8C0C0604502D14FF0020C08E0DFF833
:1012E000B8C0604502D14FF0030C01E04FF0040C90
:1012F0000CFA05FC4CEA060CC7F808C04D68ED0274
:1013000005D5D9F800501543C9F8005004E0D9F8C4
:1013100000509543C9F800504D68AD0205D5DAF884
:1013200000501543CAF8005004E0DAF80050954325
:10133000CAF800504D68AD0305D5DBF800501543E1
:10134000CBF8005004E0DBF800509543CBF8005098
:101350004D68ED0305D5DEF800501543CEF800507A
:1013600004E0DEF800509543CEF80050641C0A6893
:1013700032FA04F57FF429AFBDE8F88F0804014084
:101380000000111000100240000001400008014060
:10139000000C014000100140001401408068084228
:1013A00001D00120704700207047002A01D0016160
:1013B0007047090401617047014880687047000068
:1013C000440000200248816802781144816070471F
:1013D0004400002010B50748016841F01001016089
:1013E000032000F059F80F2000F006F800F026F86E
:1013F000002010BD0020024070B504460D4D4FF492
:101400007A712878B1FBF0F00B490968B1FBF0F074
:1014100000F06EFB08B1012070BD102C07D2002235
:101420002146501E00F018F86C60002070BD0120AD
:1014300070BD00004400002000000020704700281C
:1014400009DB00F01F02012191404009800000F1FA
:10145000E020C0F800117047F0B40D460D4B1B683A
:10146000C3F30223C3F10704042C00D90424191D7B
:10147000072901D2002300E0DB1E012606FA04F151
:10148000491E294099409E40761E16403143F0BCCB
:1014900002F0FBB80CED00E000F00701054A10680F
:1014A0004FF6FF03184040EA01200349084310604B
:1014B000704700000CED00E00000FA0510B5014691
:1014C0000020244C012922D0022939D010291DD115
:1014D00061682268D20119D51F48C1F38342805C3C
:1014E000C9030AD561681C4AC1F34041921E515C90
:1014F0001A4AB2FBF1F1484301E0194948436168D7
:10150000490203D440000321B0FBF1F010BD226A70
:10151000C2F30121012903D1920701D5C80310BDEF
:10152000022905D1626A920702D549F6404010BDF2
:101530000329FCD121688903F9D54FF2244010BD5D
:1015400000F0D0F86168C1F38131491C4900B0FB5B
:10155000F1F010BD001002405275000800127A0030
:1015600000093D002DE9F04704460D46002C17D038
:10157000DFF83081D8F8000000F00700A84211D24F
:10158000D8F8000020F007002843C8F80000D8F879
:10159000000000F00700A84204D00120BDE8F08759
:1015A0000120FBE72068404E810712D5400703D594
:1015B000706840F4E06070602078000703D57068C0
:1015C00040F4605070607068A16820F0F00008433B
:1015D00070602078C0072CD06068012806D00228EF
:1015E00009D0316889070BD40120D7E73168890316
:1015F00006D40120D2E73168890101D40120CDE76A
:10160000716821F0030101437160FFF7D5FE0746C1
:1016100041F2883906E0FFF7CFFEC01B484501D9EB
:101620000320BBE77068616800F00C00B0EB810F2D
:10163000F1D1D8F8000000F00700A8420ED9D8F880
:10164000000020F007002843C8F80000D8F8000088
:1016500000F00700A84201D001209FE72078400752
:1016600005D57068E16820F4E06008437060207878
:10167000000706D57068216920F4605040EAC10077
:10168000706000F03FF87168084AC1F30311515CC3
:10169000C8400749086007480068FFF7ADFE002012
:1016A0007CE70000002002400010024002690008B0
:1016B000000000204800002001480068704700003A
:1016C0000000002000B5FFF7F7FF04494968044A0D
:1016D000C1F30221515CC84000BD0000001002406F
:1016E0001269000800B5FFF7E7FF04494968044A9A
:1016F000C1F3C221515CC84000BD0000001002408F
:10170000126900080E4B59680E4801F00C02042AB9
:1017100011D0082A0FD10C48C1F38342805CC90361
:101720000AD55968084AC1F34041921E515C054AE6
:101730005043B0FBF1F07047044948437047000044
:101740000010024000127A004075000800093D00B8
:101750002DE9F84F0446002C0ED02078D94DC00753
:101760005ED06868C0F3810001280BD06868C0F3C0
:101770008100022803D00CE00120BDE8F88F6868E2
:10178000C00306D5286880034AD56068A8BB01203D
:10179000F3E76068B0F5803F11D0A8B1B0F5A02F95
:1017A0001BD0286820F480302860286820F480202E
:1017B0002860606830B3FFF7FFFD06461EE028682A
:1017C00040F480302860F4E7286820F480302860F6
:1017D000286820F480202860EBE7286840F4802007
:1017E0002860286840F480302860E2E7FFF7E4FDD5
:1017F000801B642802D90320BFE711E0286880031A
:10180000F4D50DE0FFF7D8FD064606E0FFF7D4FD5E
:10181000801B642801D90320AFE728688003F5D432
:101820002078DFF8A48280074FF0010A4FF000090A
:1018300045D5686810F00C0F07D06868C0F38100C8
:10184000022812D16868C0030FD42868800704D525
:101850002069012801D001208FE72868616920F004
:10186000F80040EAC100286029E02069B8B1C8F852
:1018700000A0FFF7A1FD064606E0FFF79DFD801BD7
:10188000022801D9032078E728688007F5D5286861
:10189000616920F0F80040EAC10028600FE0C8F854
:1018A0000090FFF789FD064606E0FFF785FD801BE7
:1018B000022801D9032060E728688007F5D4207842
:1018C000000726D58148A16999B1C0F800A0FFF7AB
:1018D00073FD064606E0FFF76FFD801B022801D965
:1018E00003204AE7686A8007F5D5012001F090FCE3
:1018F0000FE0C0F80090FFF75FFD064606E0FFF737
:101900005BFD801B022801D9032036E7686A800747
:10191000F5D42078400773D50026E869C00008D4C4
:10192000E86940F08050E861E86900F0805000907C
:101930000126DFF89CB1DBF80000C00514D4DBF809
:10194000000040F48070CBF80000FFF735FD07463B
:1019500006E0FFF731FDC01B642801D903200CE726
:10196000DBF80000C005F4D5E068012812D0B0B162
:1019700005281DD0286A20F001002862286A20F07E
:1019800004002862E06841F2883B28B3FFF714FDA9
:1019900007461DE0286A40F001002862F2E7286A45
:1019A00020F001002862286A20F004002862E9E79C
:1019B000286A40F004002862286A40F0010028628A
:1019C000E0E7FFF7F9FCC01B584501D90320D4E636
:1019D000286A8007F5D50DE0FFF7EEFC074606E024
:1019E000FFF7EAFCC01B584501D90320C5E6286A69
:1019F0008007F5D4012E03D1E86920F08050E8611A
:101A0000E069A0B36968C1F38101022946D00228C8
:101A100005D0C8F86090FFF7CFFC04463AE0C8F85C
:101A20006090FFF7C9FC064606E0FFF7C5FC801B87
:101A3000022801D90320A0E628688001F5D4206A95
:101A4000B0F5803F05D16868A16820F400300843F4
:101A50006860D4E908010843696821F474110843F7
:101A60006860C8F860A0FFF7A7FC044607E026E01E
:101A7000FFF7A2FC001B022801D903207DE628689D
:101A80008001F5D51BE0FFF797FC001B022801D968
:101A9000032072E628688001F5D410E001280CD0FC
:101AA0006868226A00F48031914204D1616A00F4CE
:101AB0007010884203D001205FE601205DE600201F
:101AC0005BE60000001002400000424280044242F7
:101AD000007000404FF0E021042804D0086920F095
:101AE000040008617047086940F00400086170470D
:101AF00010B5401EB0F1807F01D3012010BD4FF022
:101B0000E02460610F21601701F0BFFD0020A0619B
:101B100007202061002010BD70477047F8B50446CB
:101B200022681068D168536900F00F06002E08D1B2
:101B3000850606D58D0604D52046BDE8F84001F09F
:101B40001FBC0025002E66D003F0010601F490773B
:101B5000374360D0C20705D0CA0503D5626C42F096
:101B600001026264420705D5DA0703D0626C42F0D5
:101B700002026264820705D5DA0703D0626C42F084
:101B800004026264020707D501F02002324303D049
:101B9000626C42F008026264626C002A31D08006F6
:101BA00004D5880602D5204601F0EAFB206840698A
:101BB000C0F38010616C090700D438B3204601F0EF
:101BC000ABFB2068406940061CD52068143050E803
:101BD000001F21F0400140E80012002AF5D1E06B1F
:101BE00060B159494163E06BFFF790FA002808D0D3
:101BF000E06B416B01B0BDE8F04008472046FFF7BD
:101C00008CFFF8BD2046FFF788FFF8BD2046FFF7A0
:101C100084FF6564F8BD236B012B7DD1C3067BD5A2
:101C2000CB067ED510685068009050694FF02003B5
:101C300040064FF0020643D5E16B0868406880B269
:101C40000028E7D0A28D8242E4D9E0858869202867
:101C50002DD020680C3050E8001F21F4807140E83E
:101C60000012002AF5D12068143050E8001F21F03E
:101C7000010140E80012002AF5D12068143050E834
:101C8000001F21F0400140E80012002AF5D184F83D
:101C90004230256320680C3050E8001F21F010010D
:101CA00040E80012002AF5D1E06BFFF70BFA6663FB
:101CB000A08DE18D401A81B22046FFF72DFFF8BDBF
:101CC000A08DE18D401A81B2E08D0028F7D0002967
:101CD000F5D020680C3050E8002F22F4907240E8D4
:101CE0000027002FF5D12068143050E8002F22F093
:101CF000010240E80027002FF5D184F84230256327
:101D000020680C3050E8002F22F0100240E8002339
:101D1000002BF5D1666300E003E02046FFF7FCFEF0
:101D2000F8BD020606D50A0604D52046BDE8F840EF
:101D300001F002BC4006F3D54806F1D52046BDE8C7
:101D4000F84001F010BB00000933000870B50446EC
:101D5000002C04D094F84100002510B106E00120C9
:101D600070BD84F84050204600F024F8242084F808
:101D700041002068C16821F40051C160204601F093
:101D800063FB2068016921F4904101612068416989
:101D900021F02A0141612068C16841F40051C1600D
:101DA0006564202084F8410084F8420065630020C7
:101DB00070BD0000F0B585B005463B4B2A68002495
:101DC0003A49022003263A4F9A4232D18A6942F0B8
:101DD00004028A618A6902F0040200928A6942F070
:101DE00004028A618A6902F0040200928A6942F45C
:101DF00080428A61896901F4804100910102019168
:101E0000029001200390049601A93846FFF7CEF90D
:101E100039150191029401A93846FFF7C7F9252029
:101E2000FFF70DFB032211462520FFF715FB05B038
:101E3000F0BD204B9A42FAD18A6942F004028A61CD
:101E40008A6902F0040200928A6942F004028A61FF
:101E50008A6902F004020092CA6942F40032CA613F
:101E6000C96901F4003100910421019102900394A9
:101E7000049601A93846FFF799F9082001900294C9
:101E80000394049601A93846FFF790F90022114601
:101E90002620FFF7E1FA2620FFF7D1FA2868C1686B
:101EA00041F02001C160C2E700380140001002404B
:101EB000000801400044004090F84230202B01D03F
:101EC0000220704721B11AB10023036301F018BB4F
:101ED0000120704730B50068124988420CD1124A7F
:101EE0005088010408D41146440409784FF00003D7
:101EF00007D50A2901D0538030BD40F400405080FE
:101F000030BD0D290AD0094DC0F30D042955401CE0
:101F100080B25080C728F3D9538030BD40F4804050
:101F2000508030BD003801403A0000209C10002055
:101F30002DE9F84304460E4615461F4694F8410025
:101F4000202802D00220BDE8F8837EB175B10020C0
:101F50006064212084F84100FFF72EFA8046A584B2
:101F6000E584A068B0F5805F02D003E00120EAE7D5
:101F7000206910B13546002613E0002511E04346E4
:101F8000002280212046009701F005FB08B10320C4
:101F9000D9E79DB1216815F8010B4860E08C401E1F
:101FA000E084E08C0028EAD143460022402120460C
:101FB000009701F0F0FA40B10320C4E736F8020BB5
:101FC0002168C0F308004860E8E7202084F8410059
:101FD0000020B8E77047FEE700B585B0002002900A
:101FE00004900A48816941F008018161806900F02C
:101FF000080000904FF4704001900120039001A967
:102000000348FFF7D3F805B000BD00000010024000
:10201000000C014070B506460E4D31462846FFF7CC
:10202000BDF90D4C2278012A00D108B162B10EE051
:102030000A2001F0C7FB31462846FFF7AFF930B957
:1020400000202070012070BD012800D120700020E8
:1020500070BD0000000C01401100002070B586B07A
:10206000124CA06940F00400A061A06900F00400D7
:10207000019001260396B02002900325059502A940
:102080000B48FFF793F8A06940F00800A061A06931
:1020900000F008000190039640F20340029005957D
:1020A00002A90448FFF782F806B070BD0010024094
:1020B00000080140000C0140F8B507460E461546E1
:1020C0004FF6FF74204600F077FD1F230EA210216B
:1020D0000820009400F0AAF800233A463021082096
:1020E000009400F0A3F80023324648210820009411
:1020F00000F09CF84FF478432A46602108200094B1
:1021000000F094F8F8BD0000506C616E74205379B3
:102110007374656D000000002DE9FF5F07468B4674
:102120001348203A00EB021A00254FF080091AF8F4
:10213000058000240BEB050629FA04F010EA080FCD
:1021400006D03819B1B280B2039AFEF70FFD05E050
:102150003819B1B280B20E9AFEF708FD641CE4B2E1
:10216000082CE9D36D1CEDB2102DE0D3BDE8FF9F24
:102170001A69000830B589B01B4C4FF6FF752078FE
:102180006178A278E3780844D1180844217988421C
:1021900019D116A101A8FEF72FF8002301AA3C21AE
:1021A0004120009500F042F86378227812A101A83E
:1021B000FEF722F8002301AA50214120009500F0EB
:1021C00035F809B030BD4FF4784423460DA23C21C8
:1021D0000120009500F02AF823460FA2502101208B
:1021E000009500F023F8ECE70C0000203A25642E5F
:1021F00025642043000000003A25642E2564202534
:10220000250000004448543131204572726F72211C
:102210002020202000000000436865636B20536588
:102220006E736F7220202020000000002DE9F8431B
:1022300004460D4616469846089F0FE04346294639
:1022400020460097FFF768FF0834A4B2782C02D923
:1022500000241035ADB2902D03D8761C3278002AB8
:10226000ECD1BDE8F8832DE9F84F0546DDE90AA871
:10227000894616461F4600240BE0CDF80080325DEB
:1022800053464946284600F031FB1035ADB2641C78
:10229000E4B2BC42F1D3BDE8F88F2DE9F84F054612
:1022A000DDE90AA8894616461F4600240BE0CDF852
:1022B0000080325D53464946284600F061FB1035E8
:1022C000ADB2641CE4B2BC42F1D3BDE8F88F2DE995
:1022D000F84F0546DDE90AA8894616461F46002440
:1022E0000BE0CDF80080325D53464946284600F0A9
:1022F00091FB1035ADB2641CE4B2BC42F1D3BDE831
:10230000F88F000030B593B039A00068129039A062
:1023100003C8CDE9100136A003C8CDE90E0137A0EE
:1023200000680D9036A000680C9036A000680B90F5
:1023300035A000680A904FF6FF744FF47845CDE958
:1023400000540121042312AA0846FFF78CFFCDE9AF
:102350000054062310AA14212020FFF784FF1F2019
:10236000CDE9000408230EAA28210120FFF795FFDC
:102370000025CDE9005404230DAA3C210120FFF7DC
:10238000A6FFCDE9005404230CAA50210120FFF739
:102390009EFFCDE9005404230BAA64210120FFF71E
:1023A00096FFCDE9005404230AAA78210120FFF703
:1023B0008EFFFFF7DFFE154D15A102A8AA89FDF7D4
:1023C0001BFF002302AA642141200094FFF72EFF87
:1023D000EA8912A102A8FDF70FFF002302AA7821C3
:1023E00041200094FFF722FFFEF76EFB13B030BDD3
:1023F00000010203040506070809000000010405A6
:1024000000010607020306070E0F1011140000203A
:102410003A25336420202525000000003A2025338A
:1024200064202525000000002DE9F04788B0BEA0FB
:1024300000680790BDA000680690BDA000680590E8
:10244000BCA003C8CDE90301BCA0006802904FF610
:10245000FF740025CDE900540121062303AA084694
:10246000FFF735FFCDE90054022307AA142101200C
:10247000FFF72DFFCDE90054022306AA28210120F1
:10248000FFF725FFCDE90054032305AA3C210120D5
:10249000FFF71DFFCDE90054042302AA50210120BB
:1024A000FFF715FFCDE90054022307AA642101209C
:1024B000FFF70DFFCDE90054022306AA7821012081
:1024C000FFF705FFCDE90054032305AA8C21012065
:1024D000FFF7FDFE00233A22142121200094FFF78C
:1024E0001BFE00233A22282121200094FFF714FE2E
:1024F00000233A223C2131200094FFF70DFE0023F7
:102500003A22642121200094FFF706FE00233A229C
:10251000782121200094FFF7FFFD00233A228C212F
:1025200031200094FFF7F8FDDFF814824FF4804764
:1025300039464046FEF732FF824E30724FF4784AF9
:1025400001282BD053460D2214212820009400F09E
:1025500061FA4FF4004949464046FEF71FFF70728A
:10256000012823D0282153460D220846009400F06C
:1025700051FA4FF480717448FEF710FFB0720128D1
:102580001CD053460D223C213720009400F042FA23
:102590003846FFF73FFD012818D022E053460C22B1
:1025A00014212820009400F035FAD2E72821534660
:1025B0000C220846009400F02DFADAE753460C226C
:1025C0003C213720009400F025FAE1E77078401CA8
:1025D000C0B27070012800D97570707801280AD0D7
:1025E00035707078012809D0002801D1FEF76CFA07
:1025F00008B0BDE8F08701203070F2E7CDE900A512
:10260000042302AA50210120FFF761FE4FF400507D
:10261000FFF700FD012806D1B078401CC0B2B070B1
:10262000032800D9B5704FF48050FFF7F3FC012860
:1026300006D1F078401CC0B2F070012800D9F570C6
:10264000B278012A19D0022A3ED0032AD0D1CDE98E
:1026500000A5032305AA8C210120FFF738FEF0789E
:1026600088B30128C4D101F03BFD53460C228C21D4
:102670003C20009400F0CEF9BAE7CDE900A5022392
:1026800007AA64210120FFF722FEF07870B101282B
:10269000AED1012239464046FEF787FE53460C2252
:1026A00064212820009400F0B5F9A1E70022394602
:1026B0004046FEF77AFE53460D22642128200094FE
:1026C00000F0A8F994E725E0CDE900A5022306AAC9
:1026D00078210120FFF7FBFDF07870B1012887D148
:1026E000012249464046FEF760FE53460C227821FF
:1026F0002820009400F08EF97AE7002249464046EF
:10270000FEF753FE53460D2278212820009400F056
:1027100081F96DE701F0DCFC53460D228C213C2051
:10272000009400F077F963E7080900000A0B000045
:102730001213140015161718191A00001B1C1D1E61
:10274000001001401400002000080140F0B599B0CD
:102750004FF6FF740A211F2355A208460094FFF785
:1027600065FD002356A228210A200094FFF75EFD94
:10277000002355A23C210A200094FFF757FD0023B7
:1027800053A250210A200094FFF750FD524D53A14F
:1027900011A82A79FDF730FD4FF47846334611AA87
:1027A00028213C200094FFF741FD6A794DA109A83A
:1027B000FDF722FD3C21334609AA08460094FFF7A5
:1027C00035FDAA7947A101A8FDF716FD334601AAF8
:1027D00050213C200094FFF729FD4FF48040FFF783
:1027E00019FC0022012806D1E879401CC0B2E8712A
:1027F000032800D9EA71E9794FF4005467100129E0
:1028000004D002291CD0032934D04CE00092334676
:1028100011AA28213C20FFF709FD2046FFF7FAFB0B
:10282000012805D03846FFF7F5FB012804D03AE02F
:102830002879401C287136E02879401E287132E042
:1028400000923C21334609AA0846FFF7EFFC2046D8
:10285000FFF7E0FB012805D03846FFF7DBFB012836
:1028600004D020E06879401C68711CE06879401E43
:10287000687118E00092334601AA50213C20FFF70E
:10288000D5FC2046FFF7C6FB012805D03846FFF7E8
:10289000C1FB012804D006E0A879401CA87102E021
:1028A000A879401EA871FEF70FF919B0F0BD00001D
:1028B000536574205468726573686F6C640000001F
:1028C00074656D703A00000068756D693A0000002B
:1028D0006C696768743A0000140000202533642096
:1028E0004300000025336420252500002DE9FF5F0B
:1028F00007468A46214800EB421900264FF080081F
:1029000019F816B000240AEB060528FA04F010EABC
:102910000B0F06D03819A9B280B2039AFEF726F938
:1029200005E03819A9B280B20E9AFEF71FF9641CAF
:10293000E4B2082CE9D309EB460090F801B000247A
:1029400028FA04F010EA0B0F07D038190830A9B2A2
:1029500080B2039AFEF70AF906E038190830A9B2E6
:1029600080B20E9AFEF702F9641CE4B2082CE7D399
:10297000761CF6B2102EC3D3BDE8FF9F1A6F000875
:102980002DE9FF5F07468A46214800EB42190026E1
:102990004FF0800819F816B000240AEB060528FA53
:1029A00004F010EA0B0F06D03819A9B280B2039ACE
:1029B000FEF7DCF805E03819A9B280B20E9AFEF7EE
:1029C000D5F8641CE4B2082CE9D309EB460090F872
:1029D00001B0002428FA04F010EA0B0F07D03819D0
:1029E0000830A9B280B2039AFEF7C0F806E03819A1
:1029F0000830A9B280B20E9AFEF7B8F8641CE4B2AF
:102A0000082CE7D3761CF6B2102EC3D3BDE8FF9F87
:102A10005A7000082DE9FF5F07468A46214800EBFF
:102A2000421900264FF0800819F816B000240AEB6E
:102A3000060528FA04F010EA0B0F06D03819A9B2DF
:102A400080B2039AFEF792F805E03819A9B280B275
:102A50000E9AFEF78BF8641CE4B2082CE9D309EB5C
:102A6000460090F801B0002428FA04F010EA0B0F99
:102A700007D038190830A9B280B2039AFEF776F869
:102A800006E038190830A9B280B20E9AFEF76EF847
:102A9000641CE4B2082CE7D3761CF6B2102EC3D324
:102AA000BDE8FF9F5A71000870B504460B4D002227
:102AB00010212846FEF779FC012202210848FEF782
:102AC00074FC200A00F0B6FBE0B200F0B3FB28462D
:102AD000BDE8704001221021FEF767BC00080140EC
:102AE000000C01400120FDF75FBF70B500250024F8
:102AF000FFF7F8FF0544052000F064FE641CE4B213
:102B00000A2CF5D30A20B5FBF0F080B270BD0000AE
:102B100000B585B00B48816941F00401816180698D
:102B200000F0040000900020039004900220019027
:102B30000320029001A90448FEF738FBFDF74EFF81
:102B400005B000BD001002400008014070B5FFF75D
:102B5000CCFF03F0A5FC6FF00B0103F094FE114DC8
:102B6000294603F0E5FC04462146284603F0B6FD5D
:102B70000146204603F0B2FB0B4903F0D9FC03F0F9
:102B80000DFB0A4A0A4B01F033FF0022094B02F009
:102B9000F5FF02F073FF80B2B0F57A7F01D340F207
:102BA000E73070BD3333534000401C46BF7D1D38B5
:102BB0006744E3BF0088E34070B5064600219F23C9
:102BC0007F22084600F046F92C2000F06DF9002520
:102BD00000243046FFF768FF641CA4B2A02CF8D391
:102BE0006D1CADB2802DF3D370BD000010B5FFF7A2
:102BF00035FA00F019F9112000F056F9782000F0AC
:102C0000E1FDB12000F050F9012000F069F92C201D
:102C100000F066F92D2000F063F9B22000F044F9CD
:102C2000012000F05DF92C2000F05AF92D2000F071
:102C300057F9B32000F038F9012000F051F92C20A9
:102C400000F04EF92D2000F04BF9012000F048F97A
:102C50002C2000F045F92D2000F042F9B42000F0BE
:102C600023F9072000F03CF9C02000F01DF9A22054
:102C700000F036F9022000F033F9842000F030F93A
:102C8000C12000F011F9C52000F02AF9C22000F09F
:102C90000BF90A2000F024F9002000F021F9C320EC
:102CA00000F002F98A2000F01BF92A2000F018F940
:102CB000C42000F0F9F88A2000F012F9EE2000F0AC
:102CC0000FF9C52000F0F0F80E2000F009F93620C9
:102CD00000F0EAF8C02000F003F9E02000F0E4F88A
:102CE0000F2000F0FDF81A2000F0FAF80F2000F095
:102CF000F7F8182000F0F4F82F2000F0F1F8282061
:102D000000F0EEF8202000F0EBF8222000F0E8F8C8
:102D10001F2000F0E5F81B2000F0E2F8232000F06F
:102D2000DFF8372000F0DCF8002000F0D9F80720A9
:102D300000F0D6F8022000F0D3F8102000F0D0F810
:102D4000E12000F0B1F80F2000F0CAF81B2000F0DD
:102D5000C7F80F2000F0C4F8172000F0C1F83320A6
:102D600000F0BEF82C2000F0BBF8292000F0B8F8E5
:102D70002E2000F0B5F8302000F0B2F8302000F03E
:102D8000AFF8392000F0ACF83F2000F0A9F800209F
:102D900000F0A6F8072000F0A3F8032000F0A0F848
:102DA000102000F09DF82A2000F07EF8002000F0AE
:102DB00097F8002000F094F8002000F091F87F20B0
:102DC00000F08EF82B2000F06FF8002000F088F85B
:102DD000002000F085F8002000F082F89F2000F02D
:102DE0007FF8F02000F060F8012000F079F8F6207C
:102DF00000F05AF8002000F073F83A2000F054F880
:102E0000052000F06DF8292000F04EF80122910213
:102E10000448FEF7CAFABDE810404FF6FF70FFF70E
:102E2000CBBE0000000C014010B5094C002201216E
:102E30002046FEF7BAFA642000F0C4FC01221146D5
:102E40002046FEF7B2FABDE81040322000F0BABCCE
:102E5000000C01402DE9F04106460C4615461F4680
:102E60002A2000F021F8002000F03AF8F0B200F03B
:102E700037F8002000F034F8E8B200F031F82B20E9
:102E800000F012F8002000F02BF8E0B200F028F873
:102E9000002000F025F8F8B200F022F8BDE8F0417B
:102EA0002C2000F001B8000070B505460A4C002245
:102EB00010212046FEF779FA002202210748FEF78A
:102EC00074FA284600F0B6F92046BDE870400122A9
:102ED0001021FEF76ABA000000080140000C014012
:102EE00070B505460A4C002210212046FEF75DFA17
:102EF000012202210748FEF758FA284600F09AF905
:102F00002046BDE8704001221021FEF74EBA0000B5
:102F100000080140000C014010B5044605E000F037
:102F200011F8322000F04EFC323C322CF7D2002C4B
:102F300006D000F007F8A0B2BDE8104000F042BC97
:102F400010BD000010B501F01FF8002812D14FF499
:102F500000710948FDF784FB074800F095FD07491B
:102F6000054801F0F7FB002804D1BDE810400448F3
:102F700000F0A8B810BD0000500000205002002052
:102F8000520400202DE9F0438BB04FF40078414605
:102F90001F48FDF765FB00F07DF808B11DA400E0B7
:102FA0001EA400F05FF808B11AA500E01BA500F010
:102FB00065F808B117A600E018A600F007F908B1F7
:102FC00014A700E015A700F071F8814600F074F82E
:102FD000144ACDE90676CDE9085451781378CDE945
:102FE0000409CDE90231D0789178CDE900100E497D
:102FF0000E4A0B68581C086041460548FDF712F957
:103000000BB00022BDE8F043014909A001F038BB34
:1030100054060020747275650000000066616C73D0
:10302000650000000C000020040000200876000865
:10303000247379732F3841563857334B6B43622FC3
:10304000706C616E742F7468696E672F70726F7028
:10305000657274792F706F7374000000FEE770471B
:103060007047000010B54FF400410348FEF796F991
:10307000012800D0002010BD0010014010B54FF411
:1030800080410348FEF78AF9012800D0002010BDD6
:103090000010014010B54FF480710348FEF77EF92F
:1030A000012800D0002010BD000801400148C0895F
:1030B000704700001400002001488089704700001C
:1030C000140000202DE9F0418AB000240025089565
:1030D000074600285ED008AA30A1384600F072FFEB
:1030E000314E38B19DF8200020B135707570B57043
:1030F000F570012409AA2DA1384600F063FFDFF81E
:10310000B480012570B19DF82400A90320B10122EB
:103110004046FEF74AF903E000224046FEF745F933
:103120003570012409AA24A1384600F04BFF0100A4
:103130000FD09DF824004FF4004120B101224046F9
:10314000FEF733F903E000224046FEF72EF9357012
:10315000012409AA1AA1384600F034FF48B19DF8AD
:10316000240010B100F0BCFF01E000F0B1FF3570A9
:103170000124002C0ED020226946384600F076FF4C
:103180009DF8000018B910A00088ADF8000068464E
:1031900001F048FB0AB0BDE8F081000022617574BF
:1031A0006F5F6D6F64652200140000202266616EFF
:1031B00022000000001001402262756D70220000A4
:1031C000224C4544220000003000000003480078F3
:1031D000002801D000207047012070471400002013
:1031E00010B5FEF7E9F8094C216919B1401AB0F59C
:1031F000FA6F04D300F056FBFEF7DEF8206100F012
:1032000045F8A081FFF7A2FCE08110BD140000206A
:1032100008B507494FF4FA520968B1FBF2F141438E
:10322000009100BF0098411E0091FAD208BD000035
:103230000000002070B5054608240F4E280605D56D
:10324000012280213046FEF7B0F804E00022802100
:103250003046FEF7AAF8002220213046FEF7A5F8F6
:10326000012220213046FEF7A0F86806050E641EF4
:10327000E4B2002CE2D170BD000801407047FEF7B7
:10328000A1B870470620FDF78FBB000070B5002580
:103290000024FFF7F7FF0544052000F093FA641CB3
:1032A000E4B20A2CF5D30A20B5FBF0F003F0F8F8ED
:1032B000044903F013F8044903F006FA03F0D0F8C8
:1032C00080B270BD0AD723420000C84200B585B065
:1032D0000B48816941F004018161806900F00400BC
:1032E0000090002003900490402001900320029061
:1032F00001A90448FDF75AFFFDF770FB05B000BDBA
:10330000001002400008014010B5406A0021C1854C
:10331000C184FEF702FC10BD01680C3151E8002F9A
:1033200022F4907241E80023002BF5D1016814319A
:1033300051E8002F22F0010241E80023002BF5D1D3
:10334000016B012909D101680C3151E8002F22F0ED
:10335000100241E80023002BF5D1202180F8421013
:1033600000210163704710B50168CA6822F040026D
:10337000CA60202180F84110FEF72CFE002010BD0D
:1033800008B590F84210222901D0022008BD8268B9
:103390004FF480539A4201D1016921B1816A9A4266
:1033A0001DD052B10BE0816A02685268C2F3080274
:1033B0000A80816A891C816209E002697AB1026827
:1033C000526802F07F020A70816A491C8162C18DD5
:1033D000491E0904090CC18505D0002008BD0268FA
:1033E00052680A70F0E70168CA6822F02002CA60D9
:1033F0000168CA6822F48072CA6001684A6922F0D2
:1034000001024A61202180F8421000214163026BD1
:10341000012A03D0FEF75EFD002008BD01630168AC
:103420000C3151E8002F22F0100241E80023002B5C
:10343000F5D101680A68D20602D50A684968009188
:10344000818DFEF769FBE7E770B5044620680169E6
:10345000E26821F4405111430161A16820690143F0
:10346000606901432068C26841F20C639A430A43D1
:10347000C26020684169A26921F440711143416131
:103480001E492068884202D1FEF72CF901E0FEF7C0
:1034900019F900EBC00101EB00106168642289009A
:1034A000B0FBF1F3B3FBF2F36FF018067343B0FB1C
:1034B000F1F5B0FBF1F605EB8305322303EB0515BF
:1034C000B5FBF2F5B6FBF2F605F0F00505EB0615D7
:1034D000B0FBF1F6B0FBF1F0B0FBF2F06FF01801C9
:1034E000484306EB800003EB0010B0FBF2F02168CC
:1034F00000F00F002844886070BD000000380140D3
:1035000081628285C28500214164222180F84210B7
:103510000169002904D00168CA6842F48072CA6057
:1035200001684A6942F001024A610068C16841F0DD
:103530002001C1600020704790F84110212901D07E
:10354000022070478168B1F5805F01D1016961B1E6
:10355000016A4A1C0262026809785160C18C491EE6
:103560000904090CC1840AD013E0016A02680988C1
:10357000C1F308015160016A891C0162EEE701682C
:10358000CA6822F08002CA600068C16841F0400148
:10359000C160002070472DE9F04104460E461746F1
:1035A0009846069D25E0681C23D02DB1FDF704FF49
:1035B000A0EB0800A8421CD920680C3050E8001F7E
:1035C00021F4D07140E80012002AF5D120681430AF
:1035D00050E8001F21F0010140E80012002AF5D157
:1035E000202040346070A070002020700320BDE8CF
:1035F000F0812068006836EA000004D00020B8425C
:10360000D1D00020F3E70120F9E7000010B505480C
:10361000FEF784FA012204490248FEF74DFC002817
:10362000F8D110BD641100203A0000200A4800685B
:103630000168C94389060DD408490A88B2F5007F9C
:1036400001D300220A8043680888421C0A8002498C
:1036500048310B5470470000540800200800002037
:10366000FEE7490050EAC12018BF04204A0D18BFE8
:1036700040F0010040F2FF72B2EB515F08BF40F032
:103680000200012808BF052070470907090E00281D
:1036900004DB00F1E02080F80014704700F00F0018
:1036A00000F1E02080F8141D70472DE9F0414F1E15
:1036B00000EBC7010446D1E9000115461E4637F06C
:1036C00006020DD02A46334602F058FA7F1E04EB5C
:1036D000C703D3E9002301F0BDFF37F00602F1D1A3
:1036E000022F25D0042F13D0062F18BFBDE8F0817C
:1036F0002A46334602F042FAD4E90A2301F0AAFF2F
:103700002A46334602F03AFAD4E9082301F0A2FF30
:103710002A46334602F032FAD4E9062301F09AFF32
:103720002A46334602F02AFAD4E9042301F092FF34
:103730002A46334602F022FAD4E9022301F08AFF36
:103740002A46334602F01AFAD4E90023BDE8F041D4
:1037500001F080BF002213461046014902F036B83E
:103760000000F03F01F076BF0022134610461146DC
:1037700002F02CB840F2013200204FF0E04103F09B
:1037800054B80000024A0020110703F04EB80000B0
:1037900001FDFFFF30380A2801D2012070470020C8
:1037A0007047704710B504464FF0E02200211161C8
:1037B0000020FEF78FF90249E008088010BD0000E4
:1037C0003800002070B54FF47A71B0FBF1F4B0FB13
:1037D000F1F201FB1205094E03E0304600F010F84B
:1037E000641E002CF9D1002D06D04FF47A70684386
:1037F000BDE8704000F004B870BD000040420F000A
:103800000B49098848434FF0E021486100238B6150
:10381000086940F0010008610869C20701D0C003CF
:10382000FAD5086920F0010008618B61704700003B
:103830003800002000B585B00A48816941F00801D0
:103840008161806900F0080000904FF400700190E1
:10385000002002900320049001A90348FDF7A6FC74
:1038600005B000BD00100240000C014000B585B05D
:103870000A48816941F008018161806900F008000F
:1038800000904FF4007001900120029003200490FA
:1038900001A90348FDF78AFC05B000BD00100240F5
:1038A000000C01407CB500F04BF8002814D0FFF765
:1038B000C1FF00246D46281900F012F800280BD033
:1038C000641CE4B2052CF6D3002004492A5C0A5497
:1038D000401CC0B20528F9D37CBD00000C000020BC
:1038E0002DE9F047074600250024DFF850904FF4FB
:1038F00000786421012000F055F8A0B13220FFF7D4
:103900007FFF41464846FDF749FD01280DD00026BE
:103910006806050E3543641CE4B2082CE9D33D70FB
:103920000120BDE8F0870020FBE70126642101208B
:1039300000F054F80028EBD1F3E70000000C014040
:1039400070B5FFF793FF0122154D5402214628461A
:10395000FDF72BFD002221462846FDF726FD142009
:10396000FDF720FC012221462846FDF71EFDFFF74A
:1039700061FF6421012000F031F858B16421012079
:1039800000F010F840B16421012000F027F828B1C0
:10399000012070BD002070BD002070BD002070BDF2
:1039A000000C01402DE9F04105460C464FF400762D
:1039B000094F0BE031463846FDF7F0FCA84202D132
:1039C0000120BDE8F0810120FFF71AFF641EA4B2B8
:1039D000F0D20020F5E70000000C01402DE9F04195
:1039E00005460C464FF40076094F0BE03146384649
:1039F000FDF7D4FCA84202D00120BDE8F0810120EF
:103A0000FFF7FEFE641EA4B2F0D20020F5E700002E
:103A1000000C014001A102A000F024BA4F4B0000AD
:103A200041540D0A0000000010B54FF40071044825
:103A3000FCF738FE034800210180418010BD0000E2
:103A40009C0800200800002000B591B00B460246FB
:103A500004A101A8FCF7D0FB09A101A800F002FA1B
:103A600011B000BD41542B43495053544152543D71
:103A700022544350222C222573222C25730D0A0038
:103A8000434F4E4E4543540010B503460648048844
:103A9000002C04D0224605491846FCF76AFDFFF7C2
:103AA000C3FF204610BD0000080000209C08002035
:103AB00001A102A000F0D6B90000000041542B4340
:103AC0004950434C4F53450D0A00000010B50AA160
:103AD0000AA000F0C7F904464FF49670FDF762FBA8
:103AE0000AA10BA000F0BEF92044C0B208B1012029
:103AF00010BD002010BD00004F4B000041542B436F
:103B000049504D4F44453D310D0A00003E00000034
:103B100041542B43495053454E440D0A00000000C8
:103B200001A102A000F09EB9000000002B2B2B0089
:103B300070B505460CA10EA000F094F908B1012063
:103B400070BD0EA10E48FCF7E3FC04460BA1601CFF
:103B5000FCF7DEFC00210170621C0AA12846FCF77C
:103B60004BFB002070BD0000535441495000000041
:103B700041542B43494653520D0A000022000000D5
:103B80009C080020257300007FB500F0E9F941A0F2
:103B9000FCF726FBFFF7C4FF46A0FCF721FB4FF420
:103BA000FA7402E02046FFF70DFEFFF733FF00280E
:103BB000F8D147A0FCF714FB02E02046FFF702FE15
:103BC00000F0C2F90028F8D102E02046FFF7FAFD24
:103BD000FFF76EFF0028F8D145A0FCF701FB02E0DB
:103BE0002046FFF7EFFD012000F072F90028F7D121
:103BF00048A0FCF7F5FA02E02046FFF7E3FD00F0ED
:103C000095F90028F8D14FA251A152A0FCF7E8FA8B
:103C10004FF47A7502E02846FFF7D4FD49A14CA085
:103C200000F000F90028F6D155A0FCF7D9FA02E01F
:103C30002046FFF7C7FD6846FFF77AFF0028F7D157
:103C4000694658A0FCF7CCFAFFF732FF57A259A1FA
:103C50005D48FCF7C5FA02E02046FFF7B3FD53A12B
:103C600054A0FFF7F1FE0028F6D158A0FCF7B8FAEF
:103C700002E02046FFF7A6FDFFF728FF0028F8D155
:103C80005EA0FCF7ADFA62A0FCF7AAFA04B000202F
:103C900070BD00000D0A2020202045786974207432
:103CA00072616E73706172656E74206D6F64650D04
:103CB0000A00000020202020312E20436865636B1D
:103CC000204553503832363620284154290D0A00F9
:103CD00020202020322E20526573657420455350D9
:103CE00038323636202841542B525354290D0A00BD
:103CF00020202020332E2053657420535441206D02
:103D00006F6465202841542B43574D4F44453D3146
:103D1000290D0A0020202020342E205365742073A2
:103D2000696E676C6520636F6E6E656374696F6E34
:103D3000206D6F6465202841542B4349504D5558E0
:103D4000290D0A003132333435363738000000008F
:103D5000646A000020202020352E20436F6E6E659F
:103D6000637420576946692C20535349443A2025EF
:103D7000732C205057443A2025730D0A0000000090
:103D800020202020362E2047657420495020616471
:103D90006472657373202841542B4349465352295A
:103DA0003A20000025730D0A0D0A0000313838331F
:103DB000000000006D717474732E6865636C6F751C
:103DC00064732E636F6D00000077000820202020B0
:103DD000382E20456E746572207472616E73706146
:103DE00072656E74206D6F6465202841542B4349C1
:103DF000504D4F4445290D0A000000004F6E654E9E
:103E0000455420737563636573730D0A00000000E9
:103E10004553503832363620737563636573730DBE
:103E20000A00000000B591B00B46024604A101A8AB
:103E3000FCF7E2F908A101A800F014F811B000BDE8
:103E400041542B43574A41503D222573222C2225B1
:103E500073220D0A000000005749464920474F547D
:103E60002049500070B506460D46FA24FFF7DCFDE8
:103E70003046FCF75FFB82B2642331460B48FEF705
:103E800057F80DE000F080F838B908482946483066
:103E9000FCF73EFB08B1002070BD0A20FFF792FC42
:103EA000641EE4B2EED2012070BD00005408002070
:103EB00070B505460C46FFF7B7FD22462946BDE81A
:103EC000704064230148FEF733B800005408002016
:103ED000012805D0022807D0032809D00320704705
:103EE00005A106A0FFF7BEBF03A108A0FFF7BABF58
:103EF00001A10AA0FFF7B6BF4F4B000041542B436E
:103F0000574D4F44453D310D0A00000041542B43AD
:103F1000574D4F44453D320D0A00000041542B439C
:103F2000574D4F44453D330D0A00000001A102A04A
:103F3000FFF798BF4F4B000041542B4349504D555C
:103F4000583D300D0A00000001A102A0FFF78ABF12
:103F50004F4B000041542B5253540D0A00000000F7
:103F60000849074A0A60486000208860C860086104
:103F70000C224A618861C8610846FDF7E7BE00006F
:103F8000004400405408002007480188002905D05B
:103F900001884288914203D1002070470120704778
:103FA00001884180012070470800002004490A6808
:103FB0005206FCD5024AC1B2121D116070470000C2
:103FC000003801402DE9F0479046FCF7A1FA05467C
:103FD000280005D02C21FCF791FA04461CB107E01B
:103FE0000020BDE8F0877D212846FCF787FA0446CB
:103FF0001CB92846FCF79EFA441916A12846FCF77E
:1040000087FA814615A12846FCF782FA064615A1D3
:104010002846FCF77DFA074613A12846FCF778FAF4
:10402000B9F1000F01D0A14502D32FB1A74203D2AD
:10403000012088F80000D4E70EB1A64202D330B1C7
:10404000A04204D2002088F800000120C9E7002027
:10405000C7E70000747275650000000066616C734C
:10406000650000003A3100003A3000002DE9F041CF
:104070000E46154614A1FCF74BFA002D22D000275E
:10408000377000281ED03A21FCF738FA002819D0E2
:104090002221FCF733FA002814D000F10108222174
:1040A0004046FCF72BFA00280CD0A0EB0800C4B265
:1040B000AC4201D36D1EECB2224641463046FCF7BD
:1040C00058FA3755BDE8F0812269642200000000EB
:1040D00000224FF480710148FDF767B900080140E4
:1040E000012211020148FDF760B9000000080140FB
:1040F00000B585B00C48816941F004018161806997
:1041000000F0040000904FF48070019001200290B4
:10411000002003900320049001A90448FDF746F80D
:10412000FFF7D6FF05B000BD0010024000080140B7
:104130000124FDF74FF94FF4E01001F06BF948202E
:10414000FFF730FB4FF4E135284601F067FAFEF740
:104150004DFDFFF7BBF8FEF7DBFCFDF73DFFFCF77D
:104160008BFCFFF7C5FFFCF75DFC44A246A14AA00B
:10417000FDF7A2FF4BA0FCF733F84EA250A155A0CB
:10418000FDF79AFF55A0FCF72BF82846FFF7FCFC3B
:1041900048A257A15AA0FDF78FFF5BA0FCF720F8BB
:1041A00000F002FA43A25CA155A0FDF785FF5FA0D5
:1041B000FCF716F84FF4FA7507E062A256A150A07A
:1041C000FDF77AFF2846FFF7FDFA614A6149624828
:1041D00000F0FEF80028F0D136A260A148A0FDF75B
:1041E0006BFF64A0FBF7FCFF07E056A25BA144A0B5
:1041F000FDF762FF2846FFF7E5FA0122002166A0DD
:1042000000F068FB0028F0D14FF6FF752846FEF756
:10421000D3FC4FF4004640F6B837FEF7E1FF01F05B
:1042200025F9FEF78FFE3046FDF7F4FE01280AD18E
:1042300064A0FBF7D5FF641CE4B2032C00D9012471
:104240002846FEF7B9FC012C04D0022C05D0032C23
:1042500008D105E0FEF756F804E0FEF7E5F801E0C6
:10426000FEF774FAFEF78EFEFEF76CFE3846FEF798
:1042700053FE00F0D1FAFEF765FECEE7537461728B
:1042800074696E672E2E2E00496E6974206D6F64FE
:10429000756C65732E2E2E004C434420526561646C
:1042A0007900000068656C6C6F20776F726C642118
:1042B0000D0A0000506C65617365207761697400B8
:1042C000436F6E6E656374696E6720576946692E29
:1042D0002E2E00004553503832363600496E697430
:1042E00020455350383236362E2E2E0D0A0000004F
:1042F000496E697420636C69656E742E2E2E000001
:104300004D51545400000000496E6974204D5154C1
:10431000542E2E2E0D0A0000436F6E6E6563746975
:104320006E6720636C6F75642E2E2E004D515454B1
:1043300020636F6E6E656374696E672E2E2E0D0A94
:10434000000000005265747279696E672E2E2E008F
:10435000D40B0020700B00200C0B002053756273EF
:1043600063726962696E6720746F7069632E2E2EA6
:104370000000000053756273637269626520707299
:104380006F70657274792073657420746F706963DF
:104390002E2E2E0D0A000000247379732F384156FB
:1043A0003857334B6B43622F706C616E742F746897
:1043B000696E672F70726F70657274792F73657490
:1043C000000000006B65795F70726573730A00000E
:1043D0002DE9FE4306460F4615463046FCF7AAF87F
:1043E00002903846FCF7A6F801902846FCF7A2F8A0
:1043F0000090694C4FF0000CDDE901100844009971
:104400000144103110220120A080E0680270CA1718
:1044100001EB526222F07F03C91ACBB2D1110029FD
:1044200001DD43F08003A28802F10108A4F80480B2
:104430008354ECDCA18801F10102A28000F801C0E4
:10444000A1884FF0040201F10103A3804254A18826
:104450004FF04D0801F10103A38000F80180A1880D
:104460004FF0510801F10103A38000F80180A188F9
:104470004FF0540301F10108A4F804804354A188CB
:1044800001F10108A4F804804354A18801F101035B
:10449000A3804254A1884FF0C20301F10102A2801F
:1044A0004354A18801F10102A28000F801C0A18853
:1044B0004FF0640301F10102A2804354A1889DF8EA
:1044C000093001F10102A2804354A1889DF808300F
:1044D00001F10102A2804354A188029A08443146A6
:1044E000FCF747F8A0880299084480B2A08001999F
:1044F000002914DDE2689DF80530411C89B213548F
:10450000481C9DF8043080B2A080535410443946B2
:10451000019AFCF72EF8A08801990844A080009821
:10452000002815DDA288E1689DF80130501C80B29A
:104530008B54421C9DF8003092B2A2800B54881814
:104540002946009AFCF715F8A08800990844A08035
:104550006188A068FCF784F8A188E06800F05AF947
:1045600000253220FFF72EF9FFF70EFD10B9A068E5
:10457000FFF78AFAA0680178202904D1417802293E
:1045800001D1807830B16D1CEDB20A2DE9D3012044
:10459000BDE8FE830020FBE728000020022101483F
:1045A00000F038B93A75000870B511A21AA11CA024
:1045B00000F040F81E4A1D4890604FF40075558089
:1045C000A0F50074D46095802946FCF749F8294687
:1045D0002046FCF745F8FFF7E1FF6420FFF7F2F80B
:1045E000FFF7DCFFBDE870406420FFF7EBB8000088
:1045F0004E39572532425839693870484D34504346
:10460000794A253242427225324679394477253239
:10461000426D732533440000706C616E74000000BD
:104620003841563857334B6B436200009C0E0020D4
:10463000280000207CB506460D4614462A460AA1ED
:104640000A48FBF7D9FD0948324607A16430FBF759
:10465000D3FD07A2CDE9002404482B463246074982
:10466000C830FBF7C9FD7CBD257300000C0B002092
:104670003230313738383137373600004C77000860
:104680002DE9F8430746884616463846FBF752FFA1
:1046900000904046FBF74EFF04462D4D0020A880B9
:1046A0001EB100982044001D02E000982044801CA8
:1046B00030230121A980EA681370C11700EB516310
:1046C00023F07F01401AC1B2D811002801DD41F06A
:1046D0008001AB8803F1010CA5F804C0D154ECDCD7
:1046E000A8889DF8013000F10101A9801354A88821
:1046F0009DF8003000F10101A9801354A8883946C3
:104700001044009AFBF735FFA8880099084481B24D
:10471000A98066B10E4EEA68481C737880B2535483
:104720003378411CA98013542888401C2880A9880C
:10473000E868224608444146FBF71BFFA88820444E
:1047400081B2A980E86800F065F82879BDE8F883AF
:10475000280000202DE9F04104460E4601250027DF
:104760004FF0000840F204413046FBF779FF207813
:10477000302806D0322804D0342802D00120BDE8E9
:10478000F081302801D04FF00108641C4FF4001173
:1047900014F8010B00F07F0202FB0577ED018D425A
:1047A00001D90220EBE70006F2D42078A6F8000237
:1047B0006178A41C01EB002082B2A6F800222146F9
:1047C0003046FBF7D6FEB6F800020119B8F1000F2B
:1047D00001D001F1020102D04FF0020201E04FF0DE
:1047E000000202F102021044A7EB000082B2A6F818
:1047F000022406F202200446FBF7BBFEB6F80204D0
:104800000021B0F5007F01D2015501E086F80114C6
:104810000020B4E7FFF74CBB02210148FFF7FABFC5
:104820003C75000810B5A0B0044680216846FBF72F
:1048300039FF22460AA16846FBF7DEFC00226946E2
:1048400011A0FFF71DFF1CA0FBF7CAFC69461FA0C3
:10485000FBF7C6FC1EA0FBF7C3FC20B010BD000098
:104860007B226964223A222573222C22636F6465BD
:10487000223A3230302C226D7367223A22737563EC
:1048800063657373227D0000247379732F3841565A
:104890003857334B6B43622F706C616E742F7468A2
:1048A000696E672F70726F70657274792F7365749B
:1048B0005F7265706C7900000D0A7075626C6973C7
:1048C000685F646174613A0D0A000000257300009E
:1048D0000D0A00002DE9F843814688461646434DEF
:1048E0000027AF804846FBF725FE0090002E02D03F
:1048F0004FF0010001E04FF000000099014401F188
:10490000040108D0A8884FF0820300F10102AA80B8
:10491000EA68135407E0A8884FF0A20300F10102EF
:10492000AA80EA681354EB684FEAE17001EB50602B
:1049300020F07F02A1EB0201CCB24FEAE011002986
:1049400001DD44F08004A88800F10102AA801C5413
:10495000EADCA88800F10101A9801F54A8884FF063
:10496000010200F10101A9801A54A8889DF80120D4
:1049700000F10101A9801A54A8889DF8002000F1D7
:104980000101A9801A54A88849461844009AFBF7E7
:10499000F0FDA8880099084480B2A88026B1411C87
:1049A000A980E96801F800806988A868FBF758FECB
:1049B000A988E868FFF72EFF00243220FEF702FFE7
:1049C000FFF7E2FA10B9A868FFF75EF8A868017867
:1049D000902902D14078032806D0641CE4B20A2C46
:1049E000EBD30120BDE8F8830020FBE7280000207E
:1049F0002DE9F04D1D460C4698B0174621F00041B8
:104A000023F00043002814BF4FF0010C4FF0000CBE
:104A10000CEB440CFE4A0CEB02064FEA620C6645B6
:104A20002BD33E0018BF012606EB45061644F94A73
:104A3000964222D3F84A53EA070C02D0944205D199
:104A400048B918B000201146BDE8F08D002808BF15
:104A50004FF0000C01D04FF0010C0CEB440212F5AA
:104A6000001F0AD8002F14BF4FF0010C4FF0000CAC
:104A70000CEB450212F5001F07D918B03A462B4639
:104A80002146BDE8F04DFEF76DBE0022DFF88CA395
:104A9000002CB8BF534526DADFF884C36345A8BFAE
:104AA000022220DADFF870C39C451CDCDFF874C3F7
:104AB0000CEB235CBCF1140F08DDCCF1340627FAB3
:104AC00006FC0CFA06F6BE420DD108E05FB9CCF147
:104AD000140623FA06FC0CFA06F69E4203D10CF0EB
:104AE0000102C2F1020251EA000C19D1002D17DABD
:104AF000002C18BF022A01D0012A07D00220FBF7A0
:104B000001FE18B0BDE8F04DFEF724BE0220FBF711
:104B1000F9FDFEF71FFE18B081F00041BDE8F08DF1
:104B2000B7F1000C6CD1534525D104F1804212F548
:104B3000801201BF00280020B74918B008BFBDE8A7
:104B4000F08DB548884207DC002DA1BF604629469C
:104B500018B0BDE8F08D07E0281E05DA80F00041AE
:104B600018B06046BDE8F08DAF497944D1E9000145
:104B700018B0BDE8F08DDFF8A0C2634525D1002D47
:104B80001FDA19B1514512D1D8B909E0002840F017
:104B9000EC82A24A214618B062F31E01BDE8F08DF6
:104BA0000020214618B060F31E01BDE8F08D08DA40
:104BB00018B02346BDE8F04D02460020614600F0E3
:104BC00005BE18B02146BDE8F08D514518DAB5F1A3
:104BD000804F0DD0A5F1005CBCF1FF5C10D1B4F1A9
:104BE000000C0DDB18B06146BDE8F04D00F0ECBBE9
:104BF000234618B00246BDE8F04D194600F0BEBF8E
:104C0000060024F0004C3BD1D9B1514533D1002CE2
:104C100006DD002DA1BF0020514618B0BDE8F08D83
:104C2000002C01DD002D1BDB002C13DA002D11DB25
:104C3000012A4FF0000014BF78497C4918B0BDE844
:104C4000F08D022A18BF002C0AD0012A08D1002CAE
:104C500006DA0AE0002CB8BF002D11DA012A04D0D0
:104C6000002018B00146BDE8F08D18B000204FF0CC
:104C70000041BDE8F08DA1F14050B0F17F601AD045
:104C8000012000EBE47050EA020421D0624C521E75
:104C90004FF0000B104304BF4FF0000B644C65480D
:104CA00083427CDD644A654893421FDD884217DBFE
:104CB000002D25DB37E0002C00DA4AB1022A0CBFB8
:104CC00001204FF0FF3018B0BDE8F04D00F003BFF9
:104CD0000120FBF717FD18B0BDE8F04DFEF744BD0D
:104CE0004D4A8A4202DC002D0ADC1CE0814202DAD5
:104CF000002D18DA04E0484B994220DD002D12DD2A
:104D00000220FBF7FFFCFEF735FD05460E460022AC
:104D100053465846214600F031FF18B066F31E0195
:104D20002846BDE8F08D0220FBF7ECFCFEF72AFDDB
:104D30000A46214618B062F31E01BDE8F08D00223C
:104D40003046614601F040F980460E466FF00102A0
:104D500001F06BFD4FF05532394B01F043F84246FC
:104D6000334600F00BFF0022364B01F03BF8824641
:104D70004246334604911046194600F0FFFE524663
:104D8000049B00F0FBFE8A4600904FF0C0422E4B81
:104D90004046314600F0F2FE2C4A2B4B00E027E063
:104DA000CDE906015146009800F0E8FE82460191E7
:104DB000274A284B4046314600F0E0FE5246019B10
:104DC00001F002F982460B4602460591DDE9060133
:104DD00000F040FCDDE9062300268846304601F05D
:104DE000F3F85246059B00F0FDFF024600F07EB945
:104DF0000020B1F5801F07DA35223046614601F008
:104E000014FD06466FF0340000EB215024E0000052
:104E1000FFFF1F00FFFF0F000000F03F0000F07FCA
:104E20000000404301FCFFFF922A00000000F0FF59
:104E30000000F0BF0000E0410000F043FFFFEF3F43
:104E40005555D53F0000E03F4715F73FFE822B65E3
:104E500044DF5DF80BAE543EA0F2FF300190C1F389
:104E6000130040F07F6141F040510291FE498842B9
:104E7000D8BF002004DDFD498142C8BF012001DD0B
:104E80000D9008E000200D900198401C01900298C0
:104E9000A0F5801002900299F54878440B910D9985
:104EA00000EBC100D0E900230F9330460A920B9922
:104EB00001F08AF8CDE90601DDE90A2130460F9BB1
:104EC00000F0C8FB02460B460020EA4900F07EFCD9
:104ED000059102460B460090DDE9060100F04EFE0A
:104EE0001490E5488A464FF000087844029900681B
:104EF00012904FF0005040EA61010D980F9B01EBBA
:104F0000804000F5002109910A9A129801F05CF89E
:104F100032460B9B00F066FF4246534600F02EFEE1
:104F20000646029140465146099B129A00F026FE21
:104F3000DDE9062300F056FF3246029B01F044F8FB
:104F4000059B009A00F01AFE0091149A04905346B3
:104F50001046194600F012FE06460246C7480B46A8
:104F6000029106217844FEF7A0FBCDE90510029BD3
:104F700032461046194600F001FEDDE9053200F028
:104F8000FDFD05910646534640461946149A00F029
:104F900061FB009B049A00F0F1FD3246059B00F096
:104FA00059FBCDE90510424653461046194600F01C
:104FB000E5FD0022B24B02910A9000F04BFBDDE9C7
:104FC000053200F047FB0E464246AD4B404600F02E
:104FD000FBFF029B0A9A00F0F7FFDDE9053200F0C3
:104FE00001FF424602910A9033461046514600F0B6
:104FF000C5FDCDE906015346149A02990A9800F0BE
:10500000BDFD8A460290334642460099049800F05E
:10501000B5FD5346029A00F01DFB82460B46024640
:105020000591DDE9060100F015FBDDE9062300200E
:105030008846064600F0C8FF5246059B00F0D2FEA7
:10504000824609914FF060428E4B3046414600F057
:1050500095FD049006918C4A8A4B5046099900F0C0
:105060008DFD82460291894A894B3046414600F0C7
:1050700085FD5246029B00F0EDFA864B7B440D9A6B
:1050800003EBC203D3E9002300F0E4FA0E9007918A
:10509000019800F020FD0591DDE9061382460E9A85
:1050A000049800F0D7FA7C4A7A440D9B02EBC303C4
:1050B000D3E900230093029200F0CCFA5246059BFC
:1050C00000F0C8FA0026884652463046059B00F09C
:1050D0007BFF009B029A00F077FF069B049A00F08A
:1050E00073FF079B0E9A00F07DFE024600200B46E0
:1050F00002903846294600F041FD824601912B4638
:1051000038461946029A00F05FFF3246434600F0E7
:1051100035FD5246019B00F09DFA07468A4632460D
:1051200043462946029800F029FD05460E463A46B8
:10513000534600F08FFA594A8846914221DBA8EB8A
:10514000020353EA000210D12A46334600F03CFF26
:10515000CDE90401524A534B3846514600F07AFAE1
:10516000DDE9042300F008FE21D20220FBF7CAFA91
:10517000FEF700FB0A46214618B062F31E01BDE8A7
:10518000F08D494B28F000429A4210D3474A08EB71
:10519000020353EA00027FF4C6AD2A46334600F00C
:1051A00013FF3A46534600F0E7FD7FF6BCAD002200
:1051B000019228F000403E493E4A01EB20518242D4
:1051C00023DA481C4FF4801121FA00F040443A4A97
:1051D000C0F30A517A44394BA1F2FF31CB4020EAA7
:1051E0000303C0F3130040F48010C1F11401C84060
:1051F00012680190B8F1000FBCBF404201902846F0
:10520000314600F0E1FE05460E462A463346384652
:10521000514600F01FFA4FF000084246284B404626
:10522000059100F0ABFCCDE90601264A264B40462D
:10523000059900F0A3FC009102902A4633464046AF
:10524000059900F0C1FE3A46534600F0CBFD1F4AD7
:105250001F4B00F093FC009B029A00F0FBF90746FD
:10526000884602460B4635E08E9803007AB60B005E
:10527000DA2600000000F03F122700004026000060
:105280000000084009C7EE3FFD033ADCF5015B145E
:10529000E02F3EBE18250000DC24000000009040F6
:1052A000FE822B654715973C00CC904000346F3F41
:1052B00001FCFFFF0000E03F28240000FFFF0F007B
:1052C000432EE63F396CA80C615C20BEEF39FAFE34
:1052D000422EE63FDDE9060100F0BCF9DDE90623D8
:1052E00005460E4600F070FE3A46434600F07AFD51
:1052F0000F462A46334600901046194600F03EFC01
:10530000824602462E4888460B4605217844FEF721
:10531000CCF95246434600F031FC2A46334600F0B1
:1053200061FD80468A463B4628463146009A00F099
:1053300025FC3B46009A00F08DF906910090002272
:105340004FF080434046514600F03EFE0F460C9021
:10535000424653462846314600F010FC3B460C9A24
:1053600000F034FA069B009A00F02EFE2A463346DF
:1053700000F02AFE0022134B00F034FD0546019890
:105380000E4601EB00510815002810DC2846314676
:10539000019A01F04AFAFEF764F9042808BFFEF703
:1053A000F1F928463146019A01F03FFA05460B46CD
:1053B00018B02A4658462146BDE8F04D00F0DEBB45
:1053C000C82200000000F03F2DE9F04106460F46DC
:1053D00000F014FD041E0D4618BF0120284320F0E4
:1053E0000040C0F17F6000F1E040C00F0ED0301CE3
:1053F00018BF0120384320F00040C0F17F6000F169
:10540000E040C00F04BF0120FBF77CF9204629468D
:10541000BDE8F08170B590B00646282106A8FBF7DC
:1054200041F9142101A8FBF73DF901210691090476
:1054300007910024089402250D950E910F9606A859
:10544000FCF786F900B1FEE70F2001900295039466
:105450004FF4806004900594022101A8FCF782F8C3
:10546000002800D0FEE710B070BD000038B522481B
:10547000417800910378C278817820A0FAF7B0FED5
:105480002A4C2BA0A189FAF7ABFEE1892DA0FAF7EF
:10549000A7FE33A0FAF7A4FE21793DA0FAF7A0FEFB
:1054A000617940A0FAF79CFEA17943A0FAF798FE33
:1054B000217846A0FAF794FE29A0FAF791FEFDF7AD
:1054C000DDFD08B148A100E049A14BA0FAF788FE34
:1054D000FDF7C8FD08B144A100E045A149A0FAF7D5
:1054E0007FFEFDF7D7FD08B13FA100E040A1BDE878
:1054F000384047A0FAF774BE0C00002074656D7048
:10550000657261747572653A2025642E25642043A6
:105510002C206169725F68756D69646974793A20DD
:1055200025642E25642025250D0A00001400002086
:10553000736F696C5F68756D69646974793A202569
:10554000640D0A006C69676874696E675F696E74E0
:10555000656E736974793A2025640D0A00000000B5
:105560002D2D2D2D2D2D2D2D2D2D2D2D2D2D2D2D6B
:105570002D2D2D2D2D2D2D2D2D2D2D2D2D2D2D2D5B
:105580002D2D2D2D2D2D2D2D2D2D2D2D2D2D0A009B
:1055900074656D705F76616C75653A2025640D0ADF
:1055A0000000000068756D695F766C6175653A2072
:1055B00025640D0A000000006C696768745F766CF2
:1055C0006175653A2025640D0A00000072656D6FF3
:1055D00074655F636F6E74726F6C5F6D6F64653A54
:1055E0002025640D0A0000006F70656E0000000049
:1055F000636C6F736500000066616E3A2025730A64
:105600000000000062756D703A2025730A000000EA
:105610004C45443A2025730A0000000010B50B49A0
:10562000094A0A60486000208860C8600861886193
:105630000C2048610846FCF789FBBDE810400122B8
:1056400003490248FCF738BC0038014064110020CF
:105650003A00002010B591EA030F48BF83F00043E1
:1056600000F1BA84841A71EB030C05D2121943EBD2
:105670000C03001B61EB0C01DFF824E14FEA11542D
:10568000A4EB135C1EEA430F18BF9EEA445F73D07D
:1056900023EA0E03DCF1200E21EA045143F48013C7
:1056A00032D322FA0CFE10EB0E0023FA0CFE41EB73
:1056B0000E01CCF1200E03FA0EFE10EB0E0051F19C
:1056C0000001B1F5801FCCF1200E32D201EB045164
:1056D00012FA0EF2BDE8104058BF7047401C38BFA8
:1056E0005FEA420218BF7047002814BF20F0010093
:1056F00041F100014FEA410313F5001F38BF704725
:10570000A1F1C04100F032BB012A43EB0302ACF12E
:10571000200CDCF11F0E32BF4FF0000E23FA0CF309
:1057200010EB030041EB0451B4EB115FD0D0A1EBBF
:10573000045101F5801149085FEA300001EB045182
:105740000ED350F1000038BF12FA0EFE08D1BDE8AA
:105750001040C9E7401C38BF5FEA4202CAD1C3E724
:10576000BDE810404FEA410313F5001F38BF7047F2
:10577000A1F1C04100F0FABA9EEA445F08D011EAF4
:105780005E0FBDE8104004BF01F0004100207047EB
:10579000BDE8104070B500F09BFA00BF64FBBE3E50
:1057A0000000E0FF02494FF0000001F00CB800BF1C
:1057B0000000F87F491058BFC1F140415B1058BF4D
:1057C000C3F140438B42EFF3008070472DE9C041A5
:1057D00030B4DFF8A0C23CEA111418BF3CEA13143D
:1057E00000F0EC8081EA03051CEA111444EAD57448
:1057F00018BF1CEA131500F0C780A4EB05044FF096
:10580000004545EAC12145EAC32341EA505143EA34
:10581000525304F17F74994204F500344FEAC020DA
:105820004FEAC22208BF904200F09C804FEA136505
:105830000FF24016765D4FEA134506FB05F7C7F1F8
:10584000807706FB07F74FEAD737A7FB0368764256
:10585000C8F58038A7FB06CE38BFA8F1010807FBC2
:1058600008E64FF0000EA6FB028CE6FB03CEDCF14F
:10587000000CCEF1004E38BFAEF1010EA6FB0C5865
:105880004FF000074FF00005E6FB0E87A1FB08C6AE
:10589000A0FB07CE16EB0E0645F10005E1FB076500
:1058A00015F1E04E7EBFA4F580345FEA46066D41F7
:1058B00016F1800745F100054FEA17274FEA066603
:1058C00047EA0567A6F1DE46B6F1805F4FEA152587
:1058D0001FD9384624F0010C05EBC471BCF1FE6FF2
:1058E00001EB0C1102D8F0BCBDE8008124425CBF82
:1058F00001F5801E9EEAC47F02D4F0BCBDE80081A1
:10590000244238D4F0BCA1F1C041BDE8004100F010
:105910002DBA4FEAD22242EA43524FEAD323A7FBE1
:1059200002864FEAD02040EA415007FB03661EEA98
:105930000E0F4FEAD12105FB026658BFA6EB0056B9
:10594000B6EB00564FEA520E4EEAC37E18EB0E0E2F
:1059500056EB530EBDD518EB02085E417F1C55F186
:105960000005B6E74FF480154FF000074FF0000632
:105970004FF00008ADE7F0BC4FF0000001F1C0416E
:1059800001F00041BDE8008111EA0C1F0CEA13157B
:1059900000D00CE013EA0C1F00F025804FF000004F
:1059A000F0BC81EA030101F00041BDE80081F0BCD8
:1059B000BDE8004181EA030100F0D8B9F0BCBDE8C0
:1059C000004170B500F084F9097EFC3E00F007B894
:1059D00081EA03014FF0000001F00041704781EAC5
:1059E000030100F0C3B9F0BCBDE800414FF0000076
:1059F00021497047FFFDFBF9F7F5F4F2F0EEEDEB0E
:105A0000E9E8E6E4E3E1E0DEDDDBDAD8D7D5D4D3BC
:105A1000D1D0CFCDCCCBCAC8C7C6C5C4C2C1C0BF08
:105A2000BEBDBCBBBAB9B8B7B6B5B4B3B2B1B0AF0E
:105A3000AEADACABAAA9A8A8A7A6A5A4A3A3A2A1F2
:105A4000A09F9F9E9D9C9C9B9A99999897979695AD
:105A500095949393929191908F8F8E8E8D8C8C8B49
:105A60008B8A8989888887878685858484838382D1
:105A7000828181800000FF070000F87F4FEA115308
:105A8000A3F58063D3F11E03A8BFD3F1200C08DB7C
:105A90004FF0004242EAC12252EA505232FA03F079
:105AA000704709420BD4102BC4BF0020704703F588
:105AB000787CBCF1FF3F05D04FF0FF3070474FF0CE
:105AC0000000704770B500F003F900BF49922480D0
:105AD00000207047F0E710F0004248BF4042B0FAA3
